:100000000C942A000C9447000C9447000C94470071
:100010000C9447000C9447000C9447000C94470044
:100020000C9447000C9447000C942F020C9447004A
:100030000C9447000C9447000C9447000C94470024
:100040000C9447000C9447000C9447000C94470014
:100050000C94470011241FBECFE5D8E0DEBFCDBF12
:1000600010E0A0E6B0E0E4EBF4E002C005900D92F1
:10007000A636B107D9F720E0A6E6B0E001C01D9290
:10008000A037B207E1F70E9453010C9458020C9478
:1000900000008830E8F4613069F44BB321E030E0CF
:1000A000B90102C0660F771F8A95E2F7CB01842B56
:1000B0008BBB08954BB321E030E0B90102C0660F5D
:1000C000771F8A95E2F7CB01809584238BBB089537
:1000D00098EF980F9830F0F4613069F448B321E05C
:1000E00030E0B90102C0660F771F9A95E2F7CB01A5
:1000F000842B88BB089548B3885021E030E0B901D3
:1001000002C0660F771F8A95E2F7CB0180958423A2
:1001100088BB089590EF980F9830F0F4613069F43F
:1001200045B321E030E0B90102C0660F771F9A9510
:10013000E2F7CB01842B85BB089545B3805121E0C4
:1001400030E0B90102C0660F771F8A95E2F7CB0154
:100150008095842385BB089598EE980F9830E8F435
:10016000613069F442B321E030E0B90102C0660FAA
:10017000771F9A95E2F7CB01842B82BB089542B397
:10018000885121E030E0B90102C0660F771F8A95DF
:10019000E2F7CB018095842382BB08958830E8F490
:1001A000613069F44AB321E030E0B90102C0660F62
:1001B000771F8A95E2F7CB01842B8ABB08954AB357
:1001C00021E030E0B90102C0660F771F8A95E2F79F
:1001D000CB01809584238ABB089598EF980F9830BF
:1001E000F0F4613069F447B321E030E0B90102C0B6
:1001F000660F771F9A95E2F7CB01842B87BB089592
:1002000047B3885021E030E0B90102C0660F771F84
:100210008A95E2F7CB018095842387BB089590EF00
:10022000980F9830F0F4613069F444B321E030E085
:10023000B90102C0660F771F9A95E2F7CB01842BB4
:1002400084BB089544B3805121E030E0B90102C07D
:10025000660F771F8A95E2F7CB018095842384BBD4
:10026000089598EE980F9830E8F4613069F441B33E
:1002700021E030E0B90102C0660F771F9A95E2F7DE
:10028000CB01842B81BB089541B3885121E030E03C
:10029000B90102C0660F771F8A95E2F7CB018095FE
:1002A000842381BB089561E08DE00E94CE0061E06F
:1002B0008EE00E94CE0061E08FE00E94CE0061E0FF
:1002C0008CE00E94CE000E942D020E94BA01FFCF56
:1002D00081E080936700809166008F5F8093660065
:1002E00008950F931F93CF93DF938C01D62FC0E017
:1002F000809167008130A1F580916600823099F08D
:10030000833001F1813061F5EC2FF0E0EE0FFF1F3B
:10031000E00FF11F0190F081E02D09951092670028
:10032000109266001DC0EC2FF0E0EE0FFF1FE00FF3
:10033000F11F0190F081E02D099510926700109255
:1003400066000EC0EC2FF0E0EE0FFF1FE00FF11F74
:100350000190F081E02D09951092670010926600DF
:10036000CF5FDC1728F610926600DF91CF911F91C6
:100370000F91089578940E94170288E691E00E94F8
:10038000120263E080E690E00E947101FACF809152
:100390006C0090916D00883E934040F061E08CE0ED
:1003A0000E94490010926D0010926C0080916C00C8
:1003B00090916D00019690936D0080936C0008956C
:1003C00080916A0090916B00883E934040F061E01C
:1003D0008DE00E94490010926B0010926A0080919B
:1003E0006A0090916B00019690936B0080936A0075
:1003F00008958091680090916900883E934040F094
:1004000061E08EE00E94490010926900109268003D
:1004100080916800909169000196909369008093A3
:100420006800089590936F0080936E00089583B7DD
:10043000886083BF83B78F7B83BF12BE8CE78CBF7E
:1004400083B7816083BF83B7826083BF83B78B7FAD
:1004500083BF89B7826089BF0895789408951F92F9
:100460000F920FB60F9211242F933F934F935F93E8
:100470006F937F938F939F93AF93BF93EF93FF936C
:10048000E0916E00F0916F00309709F00995FF91AF
:10049000EF91BF91AF919F918F917F916F915F91FC
:1004A0004F913F912F910F900FBE0F901F90189575
:0404B000F894FFCFEE
:0604B400C701E001F9019F
:00000001FF
