S012000054696D6572302D696E742E7372656369
S11300000C942A000C943C000C943C000C943C008E
S11300100C943C000C943C000C943C000C943C006C
S11300200C943C000C943C000C947C020C943C001A
S11300300C943C000C943C000C943C000C943C004C
S11300400C943C000C943C000C943C000C943C003C
S11300500C943C0011241FBECFE5D8E0DEBFCDBF19
S113006020E0A0E6B0E001C01D92A737B207E1F797
S11300700E948A010C94A5020C9400008830E8F4D4
S1130080613069F44BB321E030E0B90102C0660F7E
S1130090771F8A95E2F7CB01842B8BBB08954BB372
S11300A021E030E0B90102C0660F771F8A95E2F7BC
S11300B0CB01809584238BBB089598EF980F9830DB
S11300C0F0F4613069F448B321E030E0B90102C0D2
S11300D0660F771F9A95E2F7CB01842B88BB0895AE
S11300E048B3885021E030E0B90102C0660F771FA1
S11300F08A95E2F7CB018095842388BB089590EF1D
S1130100980F9830F0F4613069F445B321E030E0A1
S1130110B90102C0660F771F9A95E2F7CB01842BD1
S113012085BB089545B3805121E030E0B90102C098
S1130130660F771F8A95E2F7CB018095842385BBF0
S1130140089598EE980F9830E8F4613069F442B35A
S113015021E030E0B90102C0660F771F9A95E2F7FB
S1130160CB01842B82BB089542B3885121E030E057
S1130170B90102C0660F771F8A95E2F7CB0180951B
S1130180842382BB08958830E8F4613069F44AB36B
S113019021E030E0B90102C0660F771F8A95E2F7CB
S11301A0CB01842B8ABB08954AB321E030E0B90126
S11301B002C0660F771F8A95E2F7CB0180958423EE
S11301C08ABB089598EF980F9830F0F4613069F481
S11301D047B321E030E0B90102C0660F771F9A955A
S11301E0E2F7CB01842B87BB089547B3885021E005
S11301F030E0B90102C0660F771F8A95E2F7CB01A0
S11302008095842387BB089590EF980F9830F0F47D
S1130210613069F444B321E030E0B90102C0660FF3
S1130220771F9A95E2F7CB01842B84BB089544B3DE
S1130230805121E030E0B90102C0660F771F8A9532
S1130240E2F7CB018095842384BB089598EE980F40
S11302509830E8F4613069F441B321E030E0B90149
S113026002C0660F771F9A95E2F7CB01842B81BBFE
S1130270089541B3885121E030E0B90102C0660F0E
S1130280771F8A95E2F7CB018095842381BB08957B
S1130290883068F44BB321E030E0B90102C0660F46
S11302A0771F8A95E2F7CB0184278BBB089598EFDB
S11302B0980F983068F448B321E030E0B90102C0E7
S11302C0660F771F9A95E2F7CB01842788BB0895C0
S11302D090EF980F983068F445B321E030E0B9010D
S11302E002C0660F771F9A95E2F7CB01842785BB7E
S11302F0089598EE980F983060F442B321E030E00E
S1130300B90102C0660F771F9A95E2F7CB018427E3
S113031082BB089561E08DE00E94C30061E08EE03D
S11303200E94C30061E08FE00E94C30061E08CE0A2
S11303300E94C30060ED77E089E192E00E94290207
S1130340811104C061E08FE00E943E0068EE73E01A
S11303508DE192E00E942902811104C061E08FE0E6
S11303600E943E006CED75E081E292E00E94290259
S1130370811104C061E08FE00E943E006CED75E0E5
S113038085E292E00E942902811104C061E08FE0BD
S11303900E943E000E94D8010E940A02FFCF81E021
S11303A080936100809160008F5F80936000089566
S11303B00E947A020E944F028FEC91E00E944A024E
S11303C00895EF92FF920F931F93CF93DF936623C9
S11303D0D1F0062FC82FD92F10E07E018C819D818A
S11303E0892B39F4E881F98109958A819B819D8360
S11303F08C83F701848195810197958384831F5FA2
S113040026960113EACFDF91CF911F910F91FF90B0
S1130410EF9008958CE70E9465028091610081301D
S1130420E1F763E085E690E00E94E101109261004B
S1130430F4CF8CE00E94480108958DE00E944801A9
S113044008958EE00E94480108958FE00E944801BB
S11304500895AC01909162009330D0F4292F30E0DC
S1130460F901EE0FFF1FDF01A20FB31FAA0FBB1F7D
S1130470AB59BF4F11965C934E9313967C936E9336
S11304801297FD01758364839F5F909362000895C2
S113049080E008959093640080936300089583B787
S11304A0886083BF83B78F7B83BF12BE8CE78CBF0A
S11304B083B7816083BF83B7826083BF83B78B7F39
S11304C083BF89B7826089BF089593B7986093BF4B
S11304D093B79F7B93BF12BE8CBF83B7816083BFEA
S11304E083B7826083BF83B78B7F83BF89B7826002
S11304F089BF0895789408951F920F920FB60F92B2
S113050011242F933F934F935F936F937F938F9314
S11305109F93AF93BF93EF93FF93E0916300F091A8
S11305206400309709F00995FF91EF91BF91AF9165
S11305309F918F917F916F915F914F913F912F91F7
S11105400F900FBE0F901F901895F894FFCFE8
S9030000FC
