:100000000C942A000C943C000C943C000C943C0092
:100010000C943C000C943C000C943C000C943C0070
:100020000C943C000C943C000C94D7020C943C00C3
:100030000C943C000C943C000C943C000C943C0050
:100040000C943C000C943C000C943C000C943C0040
:100050000C943C0011241FBECFE5D8E0DEBFCDBF1D
:1000600020E0A0E6B0E001C01D92AA37B207E1F798
:100070000E948A010C9400030C9400008830E8F47C
:10008000613069F44BB321E030E0B90102C0660F82
:10009000771F8A95E2F7CB01842B8BBB08954BB376
:1000A00021E030E0B90102C0660F771F8A95E2F7C0
:1000B000CB01809584238BBB089598EF980F9830DF
:1000C000F0F4613069F448B321E030E0B90102C0D6
:1000D000660F771F9A95E2F7CB01842B88BB0895B2
:1000E00048B3885021E030E0B90102C0660F771FA5
:1000F0008A95E2F7CB018095842388BB089590EF21
:10010000980F9830F0F4613069F445B321E030E0A5
:10011000B90102C0660F771F9A95E2F7CB01842BD5
:1001200085BB089545B3805121E030E0B90102C09C
:10013000660F771F8A95E2F7CB018095842385BBF4
:10014000089598EE980F9830E8F4613069F442B35E
:1001500021E030E0B90102C0660F771F9A95E2F7FF
:10016000CB01842B82BB089542B3885121E030E05B
:10017000B90102C0660F771F8A95E2F7CB0180951F
:10018000842382BB08958830E8F4613069F44AB36F
:1001900021E030E0B90102C0660F771F8A95E2F7CF
:1001A000CB01842B8ABB08954AB321E030E0B9012A
:1001B00002C0660F771F8A95E2F7CB0180958423F2
:1001C0008ABB089598EF980F9830F0F4613069F485
:1001D00047B321E030E0B90102C0660F771F9A955E
:1001E000E2F7CB01842B87BB089547B3885021E009
:1001F00030E0B90102C0660F771F8A95E2F7CB01A4
:100200008095842387BB089590EF980F9830F0F481
:10021000613069F444B321E030E0B90102C0660FF7
:10022000771F9A95E2F7CB01842B84BB089544B3E2
:10023000805121E030E0B90102C0660F771F8A9536
:10024000E2F7CB018095842384BB089598EE980F44
:100250009830E8F4613069F441B321E030E0B9014D
:1002600002C0660F771F9A95E2F7CB01842B81BB02
:10027000089541B3885121E030E0B90102C0660F12
:10028000771F8A95E2F7CB018095842381BB08957F
:10029000883068F44BB321E030E0B90102C0660F4A
:1002A000771F8A95E2F7CB0184278BBB089598EFDF
:1002B000980F983068F448B321E030E0B90102C0EB
:1002C000660F771F9A95E2F7CB01842788BB0895C4
:1002D00090EF980F983068F445B321E030E0B90111
:1002E00002C0660F771F9A95E2F7CB01842785BB82
:1002F000089598EE980F983060F442B321E030E012
:10030000B90102C0660F771F9A95E2F7CB018427E7
:1003100082BB089561E08DE00E94C30061E08EE041
:100320000E94C30061E08FE00E94C30061E08CE0A6
:100330000E94C30042E050E068EE73E085E992E07D
:100340000E941D02892B21F461E08FE00E943E0093
:1003500041E050E06CED75E089E992E00E941D02F9
:10036000892B21F461E08FE00E943E0040E050E0E4
:1003700060ED77E08DE992E00E941D02892B21F467
:1003800061E08FE00E943E0043E050E06CED75E0DC
:1003900081EA92E00E941D02892B21F461E08FE046
:1003A0000E943E000E94DB010E940D02FFCF81E00F
:1003B0008093620008950E94D5020E94AA0287EDF0
:1003C00091E00E94A5020895EF92FF920F931F9370
:1003D000CF93DF936623D1F0062FC82FD92F10E0DB
:1003E0007E018C819D81892B39F4E881F981099501
:1003F0008A819B819D838C83F701848195810197FC
:10040000958384831F5F27960113EACFDF91CF91F5
:100410001F910F91FF90EF9008958CE70E94C0020A
:10042000809162008130E1F76091610085E690E0A3
:100430000E94E40110926200F3CFFF920F931F938A
:10044000CF93DF938C01F090600082E08F1508F469
:1004500065C08091610050E049C0952F292F30E0A0
:10046000E9012196D901AA0FBB1FAA0FBB1FAA0F32
:10047000BB1FA21BB30BAB59BF4FFE01EE0FFF1FFB
:10048000EE0FFF1FEE0FFF1FEC1BFD0BEB59FF4F95
:1004900012960D90BC91A02D0280F381E02DEA17F9
:1004A000FB07E8F4DE01AA0FBB1FAA0FBB1FAA0FB0
:1004B000BB1FAC1BBD0BAB59BF4F1696CC9116970B
:1004C000F901EE0FFF1FEE0FFF1FEE0FFF1FE21BE4
:1004D000F30BEB59FF4F268116962C93C6839F5F33
:1004E000891708F0BBCF5F5F851720F0851708F0EC
:1004F000B4CFF9CF97E0F99EF0011124EB59FF4FEB
:100500001183008373836283758364834683F394CA
:10051000F09260008F5F8093610001C080E0DF9106
:10052000CF911F910F91FF9008958CE00E94480198
:1005300008958DE00E94480108958EE00E944801D0
:1005400008958FE00E94480108959093640080937D
:100550006300089583B7886083BF83B78F7B83BFB1
:1005600012BE8CE78CBF83B7816083BF83B7826084
:1005700083BF83B78B7F83BF89B7826089BF0895AC
:1005800093B7986093BF93B79F7B93BF12BE8CBF06
:1005900083B7816083BF83B7826083BF83B78B7F5C
:1005A00083BF89B7826089BF0895789408951F92A8
:1005B0000F920FB60F9211242F933F934F935F9397
:1005C0006F937F938F939F93AF93BF93EF93FF931B
:1005D000E0916300F0916400309709F00995FF9174
:1005E000EF91BF91AF919F918F917F916F915F91AB
:1005F0004F913F912F910F900FBE0F901F90189524
:04060000F894FFCF9C
:00000001FF
