:100000000C942A000C943C000C943C000C943C0092
:100010000C943C000C943C000C943C000C943C0070
:100020000C943C000C943C000C94ED010C943C00AE
:100030000C943C000C943C000C943C000C943C0050
:100040000C943C000C943C000C943C000C943C0040
:100050000C943C0011241FBECFE5D8E0DEBFCDBF1D
:1000600020E0A0E6B0E001C01D92A337B207E1F79F
:100070000E9405010C9416020C9400008830E8F4EC
:10008000613069F44AB321E030E0B90102C0660F83
:10009000771F8A95E2F7CB01842B8ABB08954AB378
:1000A00021E030E0B90102C0660F771F8A95E2F7C0
:1000B000CB01809584238ABB089598EF980F9830E0
:1000C000F0F4613069F447B321E030E0B90102C0D7
:1000D000660F771F9A95E2F7CB01842B87BB0895B3
:1000E00047B3885021E030E0B90102C0660F771FA6
:1000F0008A95E2F7CB018095842387BB089590EF22
:10010000980F9830F0F4613069F444B321E030E0A6
:10011000B90102C0660F771F9A95E2F7CB01842BD5
:1001200084BB089544B3805121E030E0B90102C09E
:10013000660F771F8A95E2F7CB018095842384BBF5
:10014000089598EE980F9830E8F4613069F441B35F
:1001500021E030E0B90102C0660F771F9A95E2F7FF
:10016000CB01842B81BB089541B3885121E030E05D
:10017000B90102C0660F771F8A95E2F7CB0180951F
:10018000842381BB0895883068F44BB321E030E0CC
:10019000B90102C0660F771F8A95E2F7CB01842769
:1001A0008BBB089598EF980F983068F448B321E01E
:1001B00030E0B90102C0660F771F9A95E2F7CB01D4
:1001C000842788BB089590EF980F983068F445B362
:1001D00021E030E0B90102C0660F771F9A95E2F77F
:1001E000CB01842785BB089598EE980F983060F472
:1001F00042B321E030E0B90102C0660F771F9A9543
:10020000E2F7CB01842782BB089561E08DE00E9474
:100210003E0061E08EE00E943E0061E08FE00E94BF
:100220003E0061E08CE00E943E000E94EB018DE503
:1002300091E00E94BD0185E791E00E94BD018DE83B
:1002400091E00E94BD0185EA91E00E94BD010E94FB
:100250004A01FFCF81E080936100809160008F5F51
:100260008093600008950F931F93CF93DF936623CD
:1002700061F0D62F082F192FC0E0D801ED91FD9124
:100280008D010995CF5FDC13F8CFDF91CF911F91DE
:100290000F91089578940E94D5018AE291E00E941E
:1002A000D001809161008130E1F763E08DE690E05C
:1002B0000E94330110926100F4CF80916900909107
:1002C0006A00883E934038F08CE00E94C300109290
:1002D0006A00109269008091690090916A0001960D
:1002E00090936A00809369000895809167009091CF
:1002F00068008C3D954038F08DE00E94C30010925C
:1003000068001092670080916700909168000196E4
:1003100090936800809367000895809165009091A4
:100320006600803D974038F08EE00E94C300109236
:1003300066001092650080916500909166000196BC
:10034000909366008093650008958091630090917A
:100350006400803D974038F08FE00E94C300109207
:100360006400109263008091630090916400019694
:10037000909364008093630008959C0190916200C3
:10038000933060F4E92FF0E0EE0FFF1FE359FF4FC9
:10039000318320839F5F90936200089580E00895E9
:1003A00090936C0080936B00089583B7886083BF3F
:1003B00083B78F7B83BF12BE8CE78CBF83B781600E
:1003C00083BF83B7826083BF83B78B7F83BF89B7C7
:1003D000826089BF0895789408951F920F920FB696
:1003E0000F9211242F933F934F935F936F937F93BB
:1003F0008F939F93AF93BF93EF93FF93E0916B0025
:10040000F0916C00309709F00995FF91EF91BF9141
:10041000AF919F918F917F916F915F914F913F919C
:100420002F910F900FBE0F901F901895F894FFCF4B
:00000001FF
