S01400006368616C6C656E67655F31332E73726563AA
S11300000C942A000C943F000C943F000C943F0085
S11300100C943F000C943F000C943F000C943F0060
S11300200C943F000C943F000C943F000C943F0050
S11300300C943F000C943F000C943F000C943F0040
S11300400C943F000C943F000C943F000C943F0030
S11300500C943F0011241FBECFE5D8E0DEBFCDBF16
S113006010E0A0E6B0E0E4E8F5E002C005900D92EF
S1130070A036B107D9F70E94A4020C94C0020C94D4
S11300800000CF93C82F61E00E942D0161E08C2F06
S11300900E946700CF910895CF93C82F682F617095
S11300A088E00E946700C1FB662760F989E00E942E
S11300B06700C2FB662760F98AE00E946700C3FB01
S11300C0662760F98BE00E946700CF91089588301D
S11300D0E8F4613069F44BB321E030E0B90102C0C7
S11300E0660F771F8A95E2F7CB01842B8BBB0895AB
S11300F04BB321E030E0B90102C0660F771F8A9547
S1130100E2F7CB01809584238BBB089598EF980F79
S11301109830F0F4613069F448B321E030E0B9017B
S113012002C0660F771F9A95E2F7CB01842B88BB38
S1130130089548B3885021E030E0B90102C0660F49
S1130140771F8A95E2F7CB018095842388BB0895B5
S113015090EF980F9830F0F4613069F445B321E0E2
S113016030E0B90102C0660F771F9A95E2F7CB0120
S1130170842B85BB089545B3805121E030E0B9015B
S113018002C0660F771F8A95E2F7CB01809584231E
S113019085BB089598EE980F9830E8F4613069F4BF
S11301A042B321E030E0B90102C0660F771F9A958F
S11301B0E2F7CB01842B82BB089542B3885121E03E
S11301C030E0B90102C0660F771F8A95E2F7CB01D0
S11301D08095842382BB0895982F883060F449B3B6
S11301E021E030E0B90102C0660F771F8A95E2F77B
S11301F0CB018423089588EF890F883060F446B3D7
S113020021E030E0B90102C0660F771F8A95E2F75A
S1130210CB018423089580EF890F883060F443B3C1
S113022021E030E0B90102C0660F771F8A95E2F73A
S1130230CB018423089588EE890F883060F440B39D
S113024021E030E0B90102C0660F771F8A95E2F71A
S1130250CB018423089580E008958830E8F4613068
S113026069F44AB321E030E0B90102C0660F771F98
S11302708A95E2F7CB01842B8ABB08954AB321E027
S113028030E0B90102C0660F771F8A95E2F7CB010F
S1130290809584238ABB089598EF980F9830F0F4E2
S11302A0613069F447B321E030E0B90102C0660F60
S11302B0771F9A95E2F7CB01842B87BB089547B348
S11302C0885021E030E0B90102C0660F771F8A959B
S11302D0E2F7CB018095842387BB089590EF980FB4
S11302E09830F0F4613069F444B321E030E0B901AE
S11302F002C0660F771F9A95E2F7CB01842B84BB6B
S1130300089544B3805121E030E0B90102C0660F82
S1130310771F8A95E2F7CB018095842384BB0895E7
S113032098EE980F9830E8F4613069F441B321E015
S113033030E0B90102C0660F771F9A95E2F7CB014E
S1130340842B81BB089541B3885121E030E0B90189
S113035002C0660F771F8A95E2F7CB01809584234C
S113036081BB089561E085E10E942D0161E086E191
S11303700E942D0161E087E10E942D0160E082E18D
S11303800E942D0160E083E10E942D0160E084E180
S11303900E942D0161E085E10E94670061E086E131
S11303A00E94670061E087E10E94670061E082E1EA
S11303B00E94670061E083E10E94670061E084E1DC
S11303C00E9467000895CF93DF93D0E00E94B201AA
S11303D060E085E18D0F0E946700C0E082E18C0F30
S11303E00E94EC00811107C08C2F880FC80FDF5FBB
S11303F08C2F8D0F07C0CF5FC33081F7DF5FD33001
S113040029F7E3CFDF91CF910895CF93C82F60E010
S113041081E00E94670060E082E00E9467008FE94B
S11304209FE00197F1F700C0000061E083E00E94C3
S113043067008FE99FE00197F1F700C00000C4FB5B
S1130440662760F984E00E946700C5FB662760F9AF
S113045085E00E946700C6FB662760F986E00E947B
S113046067006C2F661F6627661F87E00E9467007F
S11304708FE99FE00197F1F700C0000060E083E09E
S11304800E9467008FE99FE00197F1F700C0000028
S113049061E083E00E9467008FE99FE00197F1F734
S11304A000C000006C2F617084E00E946700C1FBF3
S11304B0662760F985E00E946700C2FB662760F941
S11304C086E00E946700C3FB662760F987E00E940C
S11304D067008FE99FE00197F1F700C0000060E03A
S11304E083E00E9467008FE99FE00197F1F700C065
S11304F00000CF91089561E081E00E942D0161E048
S113050082E00E942D0161E083E00E942D0161E000
S113051084E00E942D0161E085E00E942D0161E0EC
S113052086E00E942D0161E087E00E942D0182E0B7
S11305300E94050288E20E9405028CE00E940502E6
S113054081E00E94050208950E947B0261E088E038
S11305500E942D0161E089E00E942D0161E08AE0A2
S11305600E942D0161E08BE00E942D010E94B201E6
S11305708AE10E9441000E94E3010E944C00F8CFEE
S1070580F894FFCF19
S9030000FC
