:100000000C942A000C943C000C943C000C94480185
:100010000C943C000C943C000C943C000C943C0070
:100020000C943C000C943C000C9459010C943C0042
:100030000C943C000C943C000C943C000C943C0050
:100040000C943C000C943C000C943C000C943C0040
:100050000C943C0011241FBECFE5D8E0DEBFCDBF1D
:1000600020E0A0E6B0E001C01D92A936B207E1F79A
:100070000E9498010C94C9020C9400008830E8F4A6
:10008000613069F44BB321E030E0B90102C0660F82
:10009000771F8A95E2F7CB01842B8BBB08954BB376
:1000A00021E030E0B90102C0660F771F8A95E2F7C0
:1000B000CB01809584238BBB089598EF980F9830DF
:1000C000F0F4613069F448B321E030E0B90102C0D6
:1000D000660F771F9A95E2F7CB01842B88BB0895B2
:1000E00048B3885021E030E0B90102C0660F771FA5
:1000F0008A95E2F7CB018095842388BB089590EF21
:10010000980F9830F0F4613069F445B321E030E0A5
:10011000B90102C0660F771F9A95E2F7CB01842BD5
:1001200085BB089545B3805121E030E0B90102C09C
:10013000660F771F8A95E2F7CB018095842385BBF4
:10014000089598EE980F9830E8F4613069F442B35E
:1001500021E030E0B90102C0660F771F9A95E2F7FF
:10016000CB01842B82BB089542B3885121E030E05B
:10017000B90102C0660F771F8A95E2F7CB0180951F
:10018000842382BB08958830E8F4613069F44AB36F
:1001900021E030E0B90102C0660F771F8A95E2F7CF
:1001A000CB01842B8ABB08954AB321E030E0B9012A
:1001B00002C0660F771F8A95E2F7CB0180958423F2
:1001C0008ABB089598EF980F9830F0F4613069F485
:1001D00047B321E030E0B90102C0660F771F9A955E
:1001E000E2F7CB01842B87BB089547B3885021E009
:1001F00030E0B90102C0660F771F8A95E2F7CB01A4
:100200008095842387BB089590EF980F9830F0F481
:10021000613069F444B321E030E0B90102C0660FF7
:10022000771F9A95E2F7CB01842B84BB089544B3E2
:10023000805121E030E0B90102C0660F771F8A9536
:10024000E2F7CB018095842384BB089598EE980F44
:100250009830E8F4613069F441B321E030E0B9014D
:1002600002C0660F771F9A95E2F7CB01842B81BB02
:10027000089541B3885121E030E0B90102C0660F12
:10028000771F8A95E2F7CB018095842381BB08957F
:100290001F920F920FB60F9211248F9380916000DE
:1002A0008F5F809360008F910F900FBE0F901F9013
:1002B00018951F920F920FB60F9211242F933F9310
:1002C0004F935F936F937F938F939F93AF932091FF
:1002D0006100309162004091630050916400609130
:1002E0006500709166008091670090916800A1E0C0
:1002F0000E94BD022093610030936200409363002E
:10030000509364006093650070936600809367006B
:1003100090936800AF919F918F917F916F915F91C2
:100320004F913F912F910F900FBE0F901F901895F6
:1003300061E08DE00E94C30061E08EE00E94C30096
:1003400061E08FE00E94C30060E08AE00E94C30089
:100350000E94A302C1E0D2E0C13009F455C020F0F0
:10036000C23009F4A1C0F8CF61E08EE00E943E00E7
:1003700060E08DE00E943E0060E08FE00E943E0061
:1003800080916000882399F01092610010926200C1
:100390001092630010926400109265001092660043
:1003A000109267001092680010926000CD2F20918B
:1003B000610030916200409163005091640060914F
:1003C00065007091660080916700909168002F3CF5
:1003D000374041055105610571058105910509F019
:1003E00008F4BACF1092610010926200109263007C
:1003F00010926400109265001092660010926700DF
:1004000010926800C1E0A8CF61E08DE00E943E003C
:1004100060E08EE00E943E0060E08FE00E943E00BF
:1004200080916000882399F0109261001092620020
:1004300010926300109264001092650010926600A2
:10044000109267001092680010926000CD2F2091EA
:1004500061003091620040916300509164006091AE
:1004600065007091660080916700909168002F3C54
:10047000374041055105610571058105910509F078
:1004800008F46ACF1092610010926200109263002B
:10049000109264001092650010926600109267003E
:1004A00010926800CD2F58CF61E08FE00E943E008F
:1004B00060E08DE00E943E0060E08EE00E943E0021
:1004C00080916000882391F0109261001092620088
:1004D0001092630010926400109265001092660002
:1004E00010926700109268001092600020916100E5
:1004F000309162004091630050916400609165000A
:100500007091660080916700909168002F3C3740A1
:1005100041055105610571058105910509F008F452
:100520001BCF109261001092620010926300109233
:10053000640010926500109266001092670010929D
:100540006800C0E009CF83B7886083BF83B78F7B23
:1005500083BF12BE8CE78CBF83B7816083BF83B734
:10056000826083BF83B78B7F83BF89B7826089BF77
:100570008BB780628BBF789408950024A7FD009408
:100580002A0F301D401D501D601D701D801D901DC7
:060590000895F894FFCF6E
:00000001FF
