S01400004368616C6C656E67655F31352E73726563C8
S11300000C942A000C9447000C9447000C9447006D
S11300100C9447000C9447000C9447000C94470040
S11300200C9447000C9447000C9486030C944700EE
S11300300C9447000C9447000C9447000C94470020
S11300400C9447000C9447000C9447000C94470010
S11300500C94470011241FBECFE5D8E0DEBFCDBF0E
S113006010E0A0E6B0E0E0E4F8E002C005900D92F4
S1130070A037B107D9F720E0A0E7B0E001C01D9296
S1130080A237B207E1F70E9455030C941E040C94A6
S113009000008830E8F4613069F44BB321E030E0CB
S11300A0B90102C0660F771F8A95E2F7CB01842B52
S11300B08BBB08954BB321E030E0B90102C0660F59
S11300C0771F8A95E2F7CB01809584238BBB089533
S11300D098EF980F9830F0F4613069F448B321E058
S11300E030E0B90102C0660F771F9A95E2F7CB01A1
S11300F0842B88BB089548B3885021E030E0B901CF
S113010002C0660F771F8A95E2F7CB01809584239E
S113011088BB089590EF980F9830F0F4613069F43B
S113012045B321E030E0B90102C0660F771F9A950C
S1130130E2F7CB01842B85BB089545B3805121E0C0
S113014030E0B90102C0660F771F8A95E2F7CB0150
S11301508095842385BB089598EE980F9830E8F431
S1130160613069F442B321E030E0B90102C0660FA6
S1130170771F9A95E2F7CB01842B82BB089542B393
S1130180885121E030E0B90102C0660F771F8A95DB
S1130190E2F7CB018095842382BB0895982F8830A1
S11301A060F449B321E030E0B90102C0660F771F63
S11301B08A95E2F7CB018423089588EF890F88306C
S11301C060F446B321E030E0B90102C0660F771F46
S11301D08A95E2F7CB018423089580EF890F883054
S11301E060F443B321E030E0B90102C0660F771F29
S11301F08A95E2F7CB018423089588EE890F88302D
S113020060F440B321E030E0B90102C0660F771F0B
S11302108A95E2F7CB018423089580E0089588301D
S1130220E8F4613069F44AB321E030E0B90102C076
S1130230660F771F8A95E2F7CB01842B8ABB08955A
S11302404AB321E030E0B90102C0660F771F8A95F6
S1130250E2F7CB01809584238ABB089598EF980F29
S11302609830F0F4613069F447B321E030E0B9012B
S113027002C0660F771F9A95E2F7CB01842B87BBE8
S1130280089547B3885021E030E0B90102C0660FF9
S1130290771F8A95E2F7CB018095842387BB089565
S11302A090EF980F9830F0F4613069F444B321E092
S11302B030E0B90102C0660F771F9A95E2F7CB01CF
S11302C0842B84BB089544B3805121E030E0B9010C
S11302D002C0660F771F8A95E2F7CB0180958423CD
S11302E084BB089598EE980F9830E8F4613069F46F
S11302F041B321E030E0B90102C0660F771F9A953F
S1130300E2F7CB01842B81BB089541B3885121E0EE
S113031030E0B90102C0660F771F8A95E2F7CB017E
S11303208095842381BB089561E085E10E940F01DB
S113033061E086E10E940F0161E087E10E940F0104
S113034060E082E10E940F0160E083E10E940F01FE
S113035060E084E10E940F0161E085E10E944900B0
S113036061E086E10E94490061E087E10E94490062
S113037061E082E10E94490061E083E10E9449005A
S113038061E084E10E94490008950F931F93CF9385
S1130390DF93CDB7DEB729970FB6F894DEBF0FBE53
S11303A0CDBF89E0E0E6F0E0DE01119601900D9208
S11303B08A95E1F700E00E94940160E085E1800FF6
S11303C00E94490010E082E1810F0E94CE00811159
S11303D011C0812F90E0FC01EE0FFF1FE80FF91F01
S11303E081E090E08C0F9D1FE80FF91FE00FF11DD5
S11303F0808107C01F5F133031F70F5F0330D9F6D8
S1130400D9CF29960FB6F894DEBF0FBECDBFDF91CA
S1130410CF911F910F910895CF93C82F60E081E091
S11304200E94490060E082E00E9449008FE99FE059
S11304300197F1F700C0000061E083E00E944900E9
S11304408FE99FE00197F1F700C00000C4FB662725
S113045060F984E00E944900C5FB662760F985E0E5
S11304600E944900C6FB662760F986E00E944900A5
S11304706C2F661F6627661F87E00E9449008FE97C
S11304809FE00197F1F700C0000060E083E00E9464
S113049049008FE99FE00197F1F700C0000061E097
S11304A083E00E9449008FE99FE00197F1F700C0C3
S11304B000006C2F617084E00E944900C1FB662734
S11304C060F985E00E944900C2FB662760F986E076
S11304D00E944900C3FB662760F987E00E94490037
S11304E08FE99FE00197F1F700C0000060E083E02E
S11304F00E9449008FE99FE00197F1F700C00000D6
S1130500CF91089561E081E00E940F0161E082E0F3
S11305100E940F0161E083E00E940F0161E084E02A
S11305200E940F0161E085E00E940F0161E086E016
S11305300E940F0161E087E00E940F0182E00E94A7
S11305400C0288E20E940C028CE00E940C0281E002
S11305500E940C020895CF93C82F61E081E00E94AD
S1130560490060E082E00E9449008FE99FE0019722
S1130570F1F700C0000061E083E00E9449008FE9C8
S11305809FE00197F1F700C00000C4FB662760F903
S113059084E00E944900C5FB662760F985E00E945B
S11305A04900C6FB662760F986E00E9449006C2F6B
S11305B0661F6627661F87E00E9449008FE99FE057
S11305C00197F1F700C0000060E083E00E94490059
S11305D08FE99FE00197F1F700C0000061E083E03C
S11305E00E9449008FE99FE00197F1F700C00000E5
S11305F06C2F617084E00E944900C1FB662760F99A
S113060085E00E944900C2FB662760F986E00E94EB
S11306104900C3FB662760F987E00E9449008FE91F
S11306209FE00197F1F700C0000060E083E00E94C2
S113063049008FE99FE00197F1F700C00000CF91D6
S113064008950F931F93CF93FC018081882359F061
S11306508F01C0E00E94AB02CF5FF801EC0FF11DE7
S113066080818111F7CFCF911F910F910895CF937E
S1130670DF93CDB7DEB760970FB6F894DEBF0FBE39
S1130680CDBF4AE050E0BE016F5F7F4F0E94DE03A2
S1130690CE0101960E94210360960FB6F894DEBF46
S11306A00FBECDBFDF91CF910895CF93DF93CDB728
S11306B0DEB727970FB6F894DEBF0FBECDBF0E94FA
S11306C082020E9494010E94AF0381E40E94BD0350
S11306D087E0E9E6F0E0DE01119601900D928A953B
S11306E0E1F78BE790E00E94370366E0CE010196C4
S11306F00E94C50381E40E94AB020E94C5010E94CE
S1130700AB020E94C1030E94AB02F7CF1F920F926B
S11307100FB60F9211242F933F934F935F936F93D0
S11307207F938F939F93AF93BF93EF93FF93E09146
S11307307000F0917100309709F00995FF91EF91E5
S1130740BF91AF919F918F917F916F915F914F91E5
S11307503F912F910F900FBE0F901F90189580B569
S1130760866080BD599A8AB188618AB980B58668E5
S113077080BD10BC8FEC89B908955D9BFECF8CB908
S113078008955F9BFECF8CB108950F931F93CF9371
S1130790DF93662371F0EC016150062F10E00F5FC8
S11307A01F4F080F191F89910E94BD03C017D1075D
S11307B0D1F7DF91CF911F910F91089545325105E3
S11307C020F4423010F00C94E903FB011082CB01B9
S11307D00895BB274A3031F4992322F4BDE2909561
S11307E081959F4F0C94F503BB27FB015527AA273E
S11307F0880F991FAA1FA41710F0A41B83955051AA
S1130800B9F7A05DAA3308F0A95DA193009779F721
S1130810B111B1931192CB010C940E04DC01FC01D3
S1130820672F71917723E1F7329704C07C916D9320
S113083070836291AE17BF07C8F30895F894FFCF91
S1130840002B2D2A2F3D00000059617373696E003F
S9030000FC
