S00F000044434D6F746F722E737265637D
S11300000C942A000C943C000C943C000C94EC01DD
S11300100C943C000C943C000C943C000C943C006C
S11300200C943C000C943C000C94FD010C943C009A
S11300300C943C000C943C000C943C000C943C004C
S11300400C943C000C943C000C943C000C943C003C
S11300500C943C0011241FBECFE5D8E0DEBFCDBF19
S113006020E0A0E6B0E001C01D92A936B207E1F796
S11300700E943C020C9492020C940000CF93DF93F4
S1130080D62FC42F61E00E94670161E08D2F0E948A
S1130090670161E08C2F0E946701DF91CF91089581
S11300A0CF93DF93C62FD42F213029F120F02230B3
S11300B009F441C043C0862F0E942601811112C059
S11300C08D2F0E942601813069F460E08D2F0E94FB
S11300D0A1002FEF81EE94E0215080409040E1F7A1
S11300E000C0000061E08C2F0E94A10060E08D2F11
S11300F00E94A10023C0842F0E942601811112C0F6
S11301008C2F0E942601813069F460E08C2F0E94BC
S1130110A1002FEF81EE94E0215080409040E1F760
S113012000C0000061E08D2F0E94A10060E08C2FD0
S11301300E94A10003C060E00E94A100DF91CF9162
S113014008958830E8F4613069F44BB321E030E07D
S1130150B90102C0660F771F8A95E2F7CB01842BA1
S11301608BBB08954BB321E030E0B90102C0660FA8
S1130170771F8A95E2F7CB01809584238BBB089582
S113018098EF980F9830F0F4613069F448B321E0A7
S113019030E0B90102C0660F771F9A95E2F7CB01F0
S11301A0842B88BB089548B3885021E030E0B9011E
S11301B002C0660F771F8A95E2F7CB0180958423EE
S11301C088BB089590EF980F9830F0F4613069F48B
S11301D045B321E030E0B90102C0660F771F9A955C
S11301E0E2F7CB01842B85BB089545B3805121E010
S11301F030E0B90102C0660F771F8A95E2F7CB01A0
S11302008095842385BB089598EE980F9830E8F480
S1130210613069F442B321E030E0B90102C0660FF5
S1130220771F9A95E2F7CB01842B82BB089542B3E2
S1130230885121E030E0B90102C0660F771F8A952A
S1130240E2F7CB018095842382BB0895982F8830F0
S113025060F449B321E030E0B90102C0660F771FB2
S11302608A95E2F7CB018423089588EF890F8830BB
S113027060F446B321E030E0B90102C0660F771F95
S11302808A95E2F7CB018423089580EF890F8830A3
S113029060F443B321E030E0B90102C0660F771F78
S11302A08A95E2F7CB018423089588EE890F88307C
S11302B060F440B321E030E0B90102C0660F771F5B
S11302C08A95E2F7CB018423089580E0089588306D
S11302D0E8F4613069F44AB321E030E0B90102C0C6
S11302E0660F771F8A95E2F7CB01842B8ABB0895AA
S11302F04AB321E030E0B90102C0660F771F8A9546
S1130300E2F7CB01809584238ABB089598EF980F78
S11303109830F0F4613069F447B321E030E0B9017A
S113032002C0660F771F9A95E2F7CB01842B87BB37
S1130330089547B3885021E030E0B90102C0660F48
S1130340771F8A95E2F7CB018095842387BB0895B4
S113035090EF980F9830F0F4613069F444B321E0E1
S113036030E0B90102C0660F771F9A95E2F7CB011E
S1130370842B84BB089544B3805121E030E0B9015B
S113038002C0660F771F8A95E2F7CB01809584231C
S113039084BB089598EE980F9830E8F4613069F4BE
S11303A041B321E030E0B90102C0660F771F9A958E
S11303B0E2F7CB01842B81BB089541B3885121E03E
S11303C030E0B90102C0660F771F8A95E2F7CB01CE
S11303D08095842381BB08951F920F920FB60F92CC
S11303E011248F93809160008F5F809360008F91C0
S11303F00F900FBE0F901F9018951F920F920FB67B
S11304000F9211242F933F934F935F936F937F9396
S11304108F939F93AF93209161003091620040913C
S11304206300509164006091650070916600809152
S1130430670090916800A1E00E9486022093610009
S113044030936200409363005093640060936500AE
S1130450709366008093670090936800AF919F91BA
S11304608F917F916F915F914F913F912F910F9059
S11304700FBE0F901F9018950E945B024BE150E055
S11304806AE170E08CE190E00E943E0021E04BE1E3
S11304906AE18CE10E9450004FE150E06EE170E0AF
S11304A08DE190E00E943E0020E04FE16EE18DE19D
S11304B00E945000FFCF1DBC1CBC9CE69ABD87E087
S11304C08BBD98BD89BD88EB86BD8BE087BD8FB59C
S11304D080688FBD8FB580648FBD8FB580628FBDFE
S11304E08FB580618FBD8FB5877F8FBD8FB58B7FB3
S11304F08FBD8FB582608FBD8EB580618EBD8EB588
S113050081608EBD8FB58E7F8FBD08950024A7FDB9
S113051000942A0F301D401D501D601D701D801D4C
S10B0520901D0895F894FFCF2B
S9030000FC
