S012000054696D6572302D696E742E7372656369
S11300000C942A000C9447000C9447000C9447006D
S11300100C9447000C9447000C9447000C94470040
S11300200C9447000C9447000C94BD010C944700B9
S11300300C9447000C9447000C9447000C94470020
S11300400C9447000C9447000C9447000C94470010
S11300500C94470011241FBECFE5D8E0DEBFCDBF0E
S113006010E0A0E6B0E0E0EDF3E002C005900D92F0
S1130070A636B107D9F720E0A6E6B0E001C01D928C
S1130080A037B207E1F70E9410010C94E6010C942A
S113009000008830E8F4613069F44AB321E030E0CC
S11300A0B90102C0660F771F8A95E2F7CB01842B52
S11300B08ABB08954AB321E030E0B90102C0660F5B
S11300C0771F8A95E2F7CB01809584238ABB089534
S11300D098EF980F9830F0F4613069F447B321E059
S11300E030E0B90102C0660F771F9A95E2F7CB01A1
S11300F0842B87BB089547B3885021E030E0B901D1
S113010002C0660F771F8A95E2F7CB01809584239E
S113011087BB089590EF980F9830F0F4613069F43C
S113012044B321E030E0B90102C0660F771F9A950D
S1130130E2F7CB01842B84BB089544B3805121E0C2
S113014030E0B90102C0660F771F8A95E2F7CB0150
S11301508095842384BB089598EE980F9830E8F432
S1130160613069F441B321E030E0B90102C0660FA7
S1130170771F9A95E2F7CB01842B81BB089541B395
S1130180885121E030E0B90102C0660F771F8A95DB
S1130190E2F7CB018095842381BB0895883068F40D
S11301A04BB321E030E0B90102C0660F771F8A9596
S11301B0E2F7CB0184278BBB089598EF980F983012
S11301C068F448B321E030E0B90102C0660F771F3C
S11301D09A95E2F7CB01842788BB089590EF980F96
S11301E0983068F445B321E030E0B90102C0660FED
S11301F0771F9A95E2F7CB01842785BB089598EE83
S1130200980F983060F442B321E030E0B90102C0A5
S1130210660F771F9A95E2F7CB01842782BB089576
S113022061E08DE00E94490061E08EE00E94490097
S113023061E08FE00E94490061E08CE00E94490087
S11302400E94BB010E944501FFCF81E080936700BB
S1130250809166008F5F8093660008950F931F93CB
S1130260CF93DF93662361F0D62F082F192FC0E0B8
S1130270D801ED91FD918D010995CF5FDC13F8CF85
S1130280DF91CF911F910F91089578940E94A50159
S113029085E291E00E94A001809167008130E1F73E
S11302A063E080E690E00E942E0110926700F4CF94
S11302B080916C0090916D00883E934038F08CE002
S11302C00E94CE0010926D0010926C0080916C0020
S11302D090916D00019690936D0080936C00089549
S11302E080916A0090916B008C3D954038F08DE0D0
S11302F00E94CE0010926B0010926A0080916A00F6
S113030090916B00019690936B0080936A0008951E
S11303108091680090916900803D974038F08EE0AC
S11303200E94CE00109269001092680080916800CB
S113033090916900019690936900809368000895F4
S113034090936F0080936E00089583B7886083BF95
S113035083B78F7B83BF12BE8CE78CBF83B781606A
S113036083BF83B7826083BF83B78B7F83BF89B723
S1130370826089BF0895789408951F920F920FB6F2
S11303800F9211242F933F934F935F936F937F9317
S11303908F939F93AF93BF93EF93FF93E0916E007E
S11303A0F0916F00309709F00995FF91EF91BF919B
S11303B0AF919F918F917F916F915F914F913F91F9
S11303C02F910F900FBE0F901F901895F894FFCFA8
S10903D0580170018801D0
S9030000FC
