:100000000C942A000C943C000C943C000C943C0092
:100010000C943C000C943C000C943C000C943C0070
:100020000C943C000C943C000C9433030C943C0066
:100030000C943C000C943C000C943C000C943C0050
:100040000C943C000C943C000C943C000C943C0040
:100050000C943C0011241FBECFE5D8E0DEBFCDBF1D
:1000600020E0A0E6B0E001C01D92AA37B207E1F798
:100070000E94CB010C945C030C9400008830E8F4DF
:10008000613069F44BB321E030E0B90102C0660F82
:10009000771F8A95E2F7CB01842B8BBB08954BB376
:1000A00021E030E0B90102C0660F771F8A95E2F7C0
:1000B000CB01809584238BBB089598EF980F9830DF
:1000C000F0F4613069F448B321E030E0B90102C0D6
:1000D000660F771F9A95E2F7CB01842B88BB0895B2
:1000E00048B3885021E030E0B90102C0660F771FA5
:1000F0008A95E2F7CB018095842388BB089590EF21
:10010000980F9830F0F4613069F445B321E030E0A5
:10011000B90102C0660F771F9A95E2F7CB01842BD5
:1001200085BB089545B3805121E030E0B90102C09C
:10013000660F771F8A95E2F7CB018095842385BBF4
:10014000089598EE980F9830E8F4613069F442B35E
:1001500021E030E0B90102C0660F771F9A95E2F7FF
:10016000CB01842B82BB089542B3885121E030E05B
:10017000B90102C0660F771F8A95E2F7CB0180951F
:10018000842382BB0895982F883060F449B321E01E
:1001900030E0B90102C0660F771F8A95E2F7CB0104
:1001A0008423089588EF890F883060F446B321E0F6
:1001B00030E0B90102C0660F771F8A95E2F7CB01E4
:1001C0008423089580EF890F883060F443B321E0E1
:1001D00030E0B90102C0660F771F8A95E2F7CB01C4
:1001E0008423089588EE890F883060F440B321E0BD
:1001F00030E0B90102C0660F771F8A95E2F7CB01A4
:100200008423089580E008958830E8F4613069F42B
:100210004AB321E030E0B90102C0660F771F8A952A
:10022000E2F7CB01842B8ABB08954AB321E030E08A
:10023000B90102C0660F771F8A95E2F7CB0180955E
:1002400084238ABB089598EF980F9830F0F46130BA
:1002500069F447B321E030E0B90102C0660F771FAF
:100260009A95E2F7CB01842B87BB089547B388505A
:1002700021E030E0B90102C0660F771F8A95E2F7EE
:10028000CB018095842387BB089590EF980F983019
:10029000F0F4613069F444B321E030E0B90102C008
:1002A000660F771F9A95E2F7CB01842B84BB0895E4
:1002B00044B3805121E030E0B90102C0660F771FDE
:1002C0008A95E2F7CB018095842384BB089598EE4C
:1002D000980F9830E8F4613069F441B321E030E0E0
:1002E000B90102C0660F771F9A95E2F7CB01842B04
:1002F00081BB089541B3885121E030E0B90102C0CB
:10030000660F771F8A95E2F7CB018095842381BB26
:100310000895883068F44BB321E030E0B90102C0A1
:10032000660F771F8A95E2F7CB0184278BBB089570
:1003300098EF980F983068F448B321E030E0B901A5
:1003400002C0660F771F9A95E2F7CB01842788BB1E
:10035000089590EF980F983068F445B321E030E0AD
:10036000B90102C0660F771F9A95E2F7CB01842787
:1003700085BB089598EE980F983060F442B321E061
:1003800030E0B90102C0660F771F9A95E2F7CB0102
:10039000842782BB08950E94DC0242E050E068EEB0
:1003A00073E081EF92E00E944002892B21F461E02A
:1003B0008FE00E943E0041E050E06CED75E085EF7B
:1003C00092E00E944002892B21F461E08FE00E94BC
:1003D0003E0040E050E060ED77E089EF92E00E945F
:1003E0004002892B21F461E08FE00E943E0043E04F
:1003F00050E06CED75E08DEF92E00E944002892B99
:1004000021F461E08FE00E943E000E940E020E94F3
:10041000BE02FFCF81E08093620008950E94310305
:100420000E9406038AE092E00E9401030895EF9281
:10043000FF920F931F93CF93DF936623D1F0062F84
:10044000C82FD92F10E07E018C819D81892B39F432
:10045000E881F98109958A819B819D838C83F701CD
:10046000848195810197958384831F5F279601136B
:10047000EACFDF91CF911F910F91FF90EF900895F8
:100480009C01909160009330C0F487E0989FF00148
:100490001124EB59FF4F31832083640F711D738347
:1004A00062837583648346839F5F9093600080912D
:1004B00061008F5F80936100089580E00895CF937D
:1004C000BC01809161002091650030916600621747
:1004D000730769F043C097E0C99FF0011124EB59FD
:1004E000FF4F208131812617370711F037C0C0E058
:1004F000C817B0F59C2F292F30E0A9014F5F5F4F3F
:10050000DA01AA0FBB1FAA0FBB1FAA0FBB1FA41B98
:10051000B50BAB59BF4F4D915C911197F901EE0F9F
:10052000FF1FEE0FFF1FEE0FFF1FE21BF30BEB5938
:10053000FF4F5183408312962D913C911397338343
:10054000228314962D913C9115973583248316961A
:100550002C9126839F5F9813CECF02C080E00CC001
:10056000CF5F8C1708F0B7CF8150809361008091E6
:100570006000815080936000CF9108958CE70E94C5
:100580001C0380916200813041F46091610085E636
:1005900090E00E941702109262008AE00E94C3005D
:1005A000882379F38AE00E94C3008111EACF81EFAA
:1005B00092E00E945F02E5CF61E08DE00E940401BD
:1005C00061E08EE00E94040161E08FE00E9404017E
:1005D00061E08CE00E94040160E08AE00E94040176
:1005E00008958CE00E94890108958DE00E948901A0
:1005F00008958EE00E94890108958FE00E9489018C
:1006000008959093640080936300089583B7886091
:1006100083BF83B78F7B83BF12BE8CE78CBF83B74A
:10062000816083BF83B7826083BF83B78B7F83BFC3
:1006300089B7826089BF089593B7986093BF93B7D5
:100640009F7B93BF12BE8CBF83B7816083BF83B78C
:10065000826083BF83B78B7F83BF89B7826089BF86
:100660000895789408951F920F920FB60F92112457
:100670002F933F934F935F936F937F938F939F93AA
:10068000AF93BF93EF93FF93E0916300F091640009
:10069000309709F00995FF91EF91BF91AF919F912C
:1006A0008F917F916F915F914F913F912F910F901B
:0C06B0000FBE0F901F901895F894FFCF1C
:00000001FF
